{
  "contractName": "Marketplace",
  "abi": [
    {
      "inputs": [],
      "payable": false,
      "stateMutability": "nonpayable",
      "type": "constructor"
    },
    {
      "constant": true,
      "inputs": [
        {
          "internalType": "uint256",
          "name": "",
          "type": "uint256"
        }
      ],
      "name": "buyers",
      "outputs": [
        {
          "internalType": "address",
          "name": "",
          "type": "address"
        }
      ],
      "payable": false,
      "stateMutability": "view",
      "type": "function"
    },
    {
      "constant": true,
      "inputs": [
        {
          "internalType": "uint256",
          "name": "",
          "type": "uint256"
        }
      ],
      "name": "sellers",
      "outputs": [
        {
          "internalType": "address",
          "name": "",
          "type": "address"
        }
      ],
      "payable": false,
      "stateMutability": "view",
      "type": "function"
    },
    {
      "constant": true,
      "inputs": [],
      "name": "getBuyers",
      "outputs": [
        {
          "internalType": "address[50]",
          "name": "",
          "type": "address[50]"
        }
      ],
      "payable": false,
      "stateMutability": "view",
      "type": "function"
    },
    {
      "constant": true,
      "inputs": [],
      "name": "getSellers",
      "outputs": [
        {
          "internalType": "address[50]",
          "name": "",
          "type": "address[50]"
        }
      ],
      "payable": false,
      "stateMutability": "view",
      "type": "function"
    },
    {
      "constant": false,
      "inputs": [
        {
          "internalType": "uint256",
          "name": "productId",
          "type": "uint256"
        }
      ],
      "name": "buy",
      "outputs": [
        {
          "internalType": "uint256",
          "name": "",
          "type": "uint256"
        }
      ],
      "payable": false,
      "stateMutability": "nonpayable",
      "type": "function"
    },
    {
      "constant": false,
      "inputs": [
        {
          "internalType": "uint256",
          "name": "productId",
          "type": "uint256"
        }
      ],
      "name": "addProduct",
      "outputs": [
        {
          "internalType": "uint256",
          "name": "",
          "type": "uint256"
        }
      ],
      "payable": false,
      "stateMutability": "nonpayable",
      "type": "function"
    }
  ],
  "bytecode": "0x608060405234801561001057600080fd5b5060008090505b600c81101561008e577398df35d3e2165cd2ef4b3d5aa15478f3bead94976032826032811061004257fe5b0160006101000a81548173ffffffffffffffffffffffffffffffffffffffff021916908373ffffffffffffffffffffffffffffffffffffffff1602179055508080600101915050610017565b506104f48061009e6000396000f3fe608060405234801561001057600080fd5b50600436106100625760003560e01c8063327a48cc146100675780637ee454cb146100a9578063cee26ed5146100ef578063d96a094a1461015d578063f2aa82181461019f578063f64bfaba1461020d575b600080fd5b6100936004803603602081101561007d57600080fd5b8101908080359060200190929190505050610253565b6040518082815260200191505060405180910390f35b6100b16102c4565b6040518082603260200280838360005b838110156100dc5780820151818401526020810190506100c1565b5050505090500191505060405180910390f35b61011b6004803603602081101561010557600080fd5b8101908080359060200190929190505050610344565b604051808273ffffffffffffffffffffffffffffffffffffffff1673ffffffffffffffffffffffffffffffffffffffff16815260200191505060405180910390f35b6101896004803603602081101561017357600080fd5b8101908080359060200190929190505050610377565b6040518082815260200191505060405180910390f35b6101cb600480360360208110156101b557600080fd5b81019080803590602001909291905050506103e8565b604051808273ffffffffffffffffffffffffffffffffffffffff1673ffffffffffffffffffffffffffffffffffffffff16815260200191505060405180910390f35b61021561041b565b6040518082603260200280838360005b83811015610240578082015181840152602081019050610225565b5050505090500191505060405180910390f35b6000808210158015610266575060328211155b61026f57600080fd5b336032836032811061027d57fe5b0160006101000a81548173ffffffffffffffffffffffffffffffffffffffff021916908373ffffffffffffffffffffffffffffffffffffffff160217905550819050919050565b6102cc61049c565b6032808060200260405190810160405280929190826032801561033a576020028201915b8160009054906101000a900473ffffffffffffffffffffffffffffffffffffffff1673ffffffffffffffffffffffffffffffffffffffff16815260200190600101908083116102f0575b5050505050905090565b6032816032811061035157fe5b016000915054906101000a900473ffffffffffffffffffffffffffffffffffffffff1681565b600080821015801561038a575060328211155b61039357600080fd5b33600083603281106103a157fe5b0160006101000a81548173ffffffffffffffffffffffffffffffffffffffff021916908373ffffffffffffffffffffffffffffffffffffffff160217905550819050919050565b600081603281106103f557fe5b016000915054906101000a900473ffffffffffffffffffffffffffffffffffffffff1681565b61042361049c565b6000603280602002604051908101604052809291908260328015610492576020028201915b8160009054906101000a900473ffffffffffffffffffffffffffffffffffffffff1673ffffffffffffffffffffffffffffffffffffffff1681526020019060010190808311610448575b5050505050905090565b60405180610640016040528060329060208202803883398082019150509050509056fea265627a7a723158203e619ad881e2b81f91e194acac1d33df8634526632eb50ada7ca1131ef92aa4e64736f6c63430005100032",
  "source": "pragma solidity ^0.5.0;\r\n\r\ncontract Marketplace {\r\n    address[50] public buyers;\r\n    address[50] public sellers;\r\n\r\n    constructor() public {\r\n        for (uint256 i = 0; i < 12; i++) {\r\n            sellers[i] = 0x98DF35D3e2165Cd2EF4B3d5aA15478f3BEad9497;\r\n        }\r\n    }\r\n\r\n    function getBuyers() public view returns (address[50] memory) {\r\n        return buyers;\r\n    }\r\n\r\n    function getSellers() public view returns (address[50] memory) {\r\n        return sellers;\r\n    }\r\n\r\n    function buy(uint256 productId) public returns (uint256) {\r\n        require(productId >= 0 && productId <= buyers.length);\r\n\r\n        buyers[productId] = msg.sender;\r\n\r\n        return productId;\r\n    }\r\n\r\n    function addProduct(uint256 productId) public returns (uint256) {\r\n        require(productId >= 0 && productId <= buyers.length);\r\n\r\n        sellers[productId] = msg.sender;\r\n\r\n        return productId;\r\n    }\r\n}\r\n",
  "sourcePath": "C:\\Users\\Player Ghost\\Desktop\\Truffle Projects\\marketplace-smart-contract\\contracts\\Marketplace.sol",
  "compiler": {
    "name": "solc",
    "version": "0.5.16+commit.9c3226ce.Emscripten.clang"
  },
  "schemaVersion": "3.4.7",
  "updatedAt": "2022-06-01T23:13:16.228Z",
  "networkType": "ethereum",
  "devdoc": {
    "methods": {}
  },
  "userdoc": {
    "methods": {}
  }
}