{
  "contractName": "Marketplace",
  "abi": [
    {
      "inputs": [],
      "payable": false,
      "stateMutability": "nonpayable",
      "type": "constructor"
    },
    {
      "constant": true,
      "inputs": [
        {
          "internalType": "uint256",
          "name": "",
          "type": "uint256"
        },
        {
          "internalType": "uint256",
          "name": "",
          "type": "uint256"
        }
      ],
      "name": "buyers",
      "outputs": [
        {
          "internalType": "address",
          "name": "",
          "type": "address"
        }
      ],
      "payable": false,
      "stateMutability": "view",
      "type": "function"
    },
    {
      "constant": true,
      "inputs": [
        {
          "internalType": "uint256",
          "name": "",
          "type": "uint256"
        }
      ],
      "name": "sellers",
      "outputs": [
        {
          "internalType": "address",
          "name": "",
          "type": "address"
        }
      ],
      "payable": false,
      "stateMutability": "view",
      "type": "function"
    },
    {
      "constant": true,
      "inputs": [],
      "name": "getBuyers",
      "outputs": [
        {
          "internalType": "address[50][50]",
          "name": "",
          "type": "address[50][50]"
        }
      ],
      "payable": false,
      "stateMutability": "view",
      "type": "function"
    },
    {
      "constant": true,
      "inputs": [],
      "name": "getSellers",
      "outputs": [
        {
          "internalType": "address[50]",
          "name": "",
          "type": "address[50]"
        }
      ],
      "payable": false,
      "stateMutability": "view",
      "type": "function"
    },
    {
      "constant": false,
      "inputs": [
        {
          "internalType": "uint256",
          "name": "productId",
          "type": "uint256"
        },
        {
          "internalType": "uint256",
          "name": "buyerId",
          "type": "uint256"
        }
      ],
      "name": "buy",
      "outputs": [
        {
          "internalType": "uint256",
          "name": "",
          "type": "uint256"
        }
      ],
      "payable": false,
      "stateMutability": "nonpayable",
      "type": "function"
    },
    {
      "constant": false,
      "inputs": [
        {
          "internalType": "uint256",
          "name": "productId",
          "type": "uint256"
        }
      ],
      "name": "addProduct",
      "outputs": [
        {
          "internalType": "uint256",
          "name": "",
          "type": "uint256"
        }
      ],
      "payable": false,
      "stateMutability": "nonpayable",
      "type": "function"
    }
  ],
  "bytecode": "0x608060405234801561001057600080fd5b5060008090505b600c81101561008f577398df35d3e2165cd2ef4b3d5aa15478f3bead94976109c4826032811061004357fe5b0160006101000a81548173ffffffffffffffffffffffffffffffffffffffff021916908373ffffffffffffffffffffffffffffffffffffffff1602179055508080600101915050610017565b506105da8061009f6000396000f3fe608060405234801561001057600080fd5b50600436106100625760003560e01c806327e7875a14610067578063327a48cc146100df5780637ee454cb14610121578063cee26ed514610167578063d6febde8146101d5578063f64bfaba14610221575b600080fd5b61009d6004803603604081101561007d57600080fd5b81019080803590602001909291908035906020019092919050505061028a565b604051808273ffffffffffffffffffffffffffffffffffffffff1673ffffffffffffffffffffffffffffffffffffffff16815260200191505060405180910390f35b61010b600480360360208110156100f557600080fd5b81019080803590602001909291905050506102cf565b6040518082815260200191505060405180910390f35b610129610341565b6040518082603260200280838360005b83811015610154578082015181840152602081019050610139565b5050505090500191505060405180910390f35b6101936004803603602081101561017d57600080fd5b81019080803590602001909291905050506103c3565b604051808273ffffffffffffffffffffffffffffffffffffffff1673ffffffffffffffffffffffffffffffffffffffff16815260200191505060405180910390f35b61020b600480360360408110156101eb57600080fd5b8101908080359060200190929190803590602001909291905050506103f7565b6040518082815260200191505060405180910390f35b610229610478565b604051808260326000925b8184101561027a5782846020020151603260200280838360005b8381101561026957808201518184015260208101905061024e565b505050509050019260010192610234565b9250505091505060405180910390f35b6000826032811061029757fe5b6032020181603281106102a657fe5b016000915091509054906101000a900473ffffffffffffffffffffffffffffffffffffffff1681565b60008082101580156102e2575060328211155b6102eb57600080fd5b336109c483603281106102fa57fe5b0160006101000a81548173ffffffffffffffffffffffffffffffffffffffff021916908373ffffffffffffffffffffffffffffffffffffffff160217905550819050919050565b610349610531565b6109c46032806020026040519081016040528092919082603280156103b9576020028201915b8160009054906101000a900473ffffffffffffffffffffffffffffffffffffffff1673ffffffffffffffffffffffffffffffffffffffff168152602001906001019080831161036f575b5050505050905090565b6109c481603281106103d157fe5b016000915054906101000a900473ffffffffffffffffffffffffffffffffffffffff1681565b600080831015801561040a575060328311155b61041357600080fd5b336000846032811061042157fe5b60320201836032811061043057fe5b0160006101000a81548173ffffffffffffffffffffffffffffffffffffffff021916908373ffffffffffffffffffffffffffffffffffffffff16021790555081905092915050565b610480610554565b6000603280602002604051908101604052809291906000905b8282101561052857838260320201603280602002604051908101604052809291908260328015610514576020028201915b8160009054906101000a900473ffffffffffffffffffffffffffffffffffffffff1673ffffffffffffffffffffffffffffffffffffffff16815260200190600101908083116104ca575b505050505081526020019060010190610499565b50505050905090565b604051806106400160405280603290602082028038833980820191505090505090565b6040518061064001604052806032905b61056c610582565b8152602001906001900390816105645790505090565b60405180610640016040528060329060208202803883398082019150509050509056fea265627a7a7231582044a5bf15513040fba46d18439ff0a7323f4ab86724a4142ab50dbdfb945fefd664736f6c63430005100032",
  "source": "pragma solidity ^0.5.0;\r\n\r\ncontract Marketplace {\r\n    address[50][50] public buyers;\r\n    address[50] public sellers;\r\n\r\n    constructor() public {\r\n        for (uint256 i = 0; i < 12; i++) {\r\n            sellers[i] = 0x98DF35D3e2165Cd2EF4B3d5aA15478f3BEad9497;\r\n        }\r\n    }\r\n\r\n    function getBuyers() public view returns (address[50][50] memory) {\r\n        return buyers;\r\n    }\r\n\r\n    function getSellers() public view returns (address[50] memory) {\r\n        return sellers;\r\n    }\r\n\r\n    function buy(uint256 productId, uint256 buyerId) public returns (uint256) {\r\n        require(productId >= 0 && productId <= buyers.length);\r\n\r\n        buyers[productId][buyerId] = msg.sender;\r\n\r\n        return buyerId;\r\n    }\r\n\r\n    function addProduct(uint256 productId) public returns (uint256) {\r\n        require(productId >= 0 && productId <= buyers.length);\r\n\r\n        sellers[productId] = msg.sender;\r\n\r\n        return productId;\r\n    }\r\n}\r\n",
  "sourcePath": "C:\\Users\\Player Ghost\\Desktop\\Truffle Projects\\marketplace-smart-contract\\contracts\\Marketplace.sol",
  "compiler": {
    "name": "solc",
    "version": "0.5.16+commit.9c3226ce.Emscripten.clang"
  },
  "schemaVersion": "3.4.7",
  "updatedAt": "2022-06-05T21:16:46.752Z",
  "networkType": "ethereum",
  "devdoc": {
    "methods": {}
  },
  "userdoc": {
    "methods": {}
  }
}